:020000040800F2
:1000000000050020B103000855020008570200084F
:100010005B0200085F0200086302000800000000A5
:10002000000000000000000000000000670200085F
:1000300069020008000000006B0200086D02000861
:10004000CB030008CB030008CB030008CB03000858
:10005000CB030008CB030008CB030008CB03000848
:10006000CB030008CB030008CB030008CB03000838
:10007000CB030008CB030008CB030008CB03000828
:10008000CB030008CB030008CB030008CB03000818
:10009000CB030008CB030008CB030008CB03000808
:1000A000CB030008CB030008CB030008CB030008F8
:1000B000CB030008CB030008CB030008CB030008E8
:1000C000CB030008CB030008CB030008CB030008D8
:1000D000CB0300085D090008CB030008CB03000830
:1000E000CB030008CB030008CB030008CB030008B8
:1000F000CB030008CB030008CB030008CB030008A8
:10010000CB030008CB030008CB030008CB03000897
:10011000CB030008CB030008CB030008CB03000887
:10012000CB030008CB030008CB030008CB03000877
:10013000DFF810D000F086FC0048004749010008B5
:10014000AFF3008000050020002400F069FB4FF4AD
:10015000A06000F03FF94FF4165000F0B3FB00F040
:1001600043FC4BE02648008800F40040E8B12448F6
:10017000067824A000F078FC00250DE02448405DBE
:100180002449088000BF2348001F008800F0400079
:100190000028F8D0681CC5B2B542EFDB1EA000F005
:1001A00063FC00201649088028E0601C84B241F2FC
:1001B000883094FBF0F100FB114028B918A000F042
:1001C00053FC1AA000F050FCC82094FBF0F100FB97
:1001D000114010B91AA000F047FC1E2094FBF0F16A
:1001E00000FB114038B91A48006808B9012000E046
:1001F0000020174908600A2000F02BFBB2E700003E
:10020000300000200D0A2032333A0D0A00000000B1
:1002100034000020043801400D0A0D0A00000000DF
:100220000D0A616161616161610D0A0031613262D3
:100230003363346435650D0A0D0A0D0A00000000B1
:10024000626262626262626262620D0A00000000C3
:10025000A0012142704700BFFEE700BFFEE700BFDC
:10026000FEE700BFFEE77047704770477047000029
:100270000CB50020019000904848006840F48030A0
:100280004649086000BF4548006800F4003000900F
:100290000198401C0190009818B90198B0F5A06F22
:1002A000F1D13E48006800F4003010B10120009008
:1002B00001E0002000900098012843D138480068F0
:1002C00040F01000364908600846006820F003003E
:1002D00008600846006840F0020008602F48406847
:1002E0002E4948600846406848600846406840F427
:1002F000806048600846406820F47C1048600846EA
:10030000406840F4E81048600846006840F080709B
:10031000086000BF2148006800F000700028F9D094
:100320001E48406820F003001C49486008464068A9
:1003300040F00200486000BF1848406800F00C0020
:100340000828F9D10CBD10B5FFF792FF10BD10B50C
:100350001248006840F001001049086008464068F3
:10036000104908400D494860084600680E49084099
:100370000A4908600846006820F4802008600846A2
:10038000406820F4FE0048604FF41F008860FFF7CB
:10039000DAFF4FF000600549086010BD0010024010
:1003A000002002400000FFF8FFFFF6FE08ED00E02D
:1003B0000648804706480047FEE7FEE7FEE7FEE7FF
:1003C000FEE7FEE7FEE7FEE7FEE7FEE74F03000875
:1003D0003101000825490143254A1160704770B575
:1003E000002100230F22C47804B3214C246804F4B4
:1003F000E064C4F5E064210AC1F10403CA40447812
:1004000004FA03F18478144021430901194C067859
:10041000A155047804F01F050124AC4005786D1146
:10042000AD0005F1E025C5F8004109E0047804F0CD
:100430001F050124AC40104D0678761145F8264082
:1004400070BD042808D14FF0E021096941F0040192
:100450004FF0E022116107E04FF0E021096921F03F
:1004600004014FF0E0221161704700000000FA051E
:100470000CED00E000E400E080E100E02DE9F04157
:10048000024600250026002000230024002791F8C2
:1004900003C00CF00F0591F803C00CF0100CBCF178
:1004A000000F03D091F802C04CEA050591F800C096
:1004B000BCF1000F31D0146800202BE04FF0010C8C
:1004C0000CFA00F3B1F800C00CEA03069E4220D1FA
:1004D00083004FF00F0C0CFA03F7BC4305FA03FC42
:1004E0004CEA040491F803C0BCF1280F06D14FF088
:1004F000010C0CFA00FCC2F814C00AE091F803C029
:10050000BCF1480F05D14FF0010C0CFA00FCC2F809
:1005100010C0401C0828D1D31460B1F800C0BCF151
:10052000FF0F34DD546800202EE000F1080C4FF07E
:10053000010808FA0CF3B1F800C00CEA03069E4269
:1005400021D183004FF00F0C0CFA03F7BC4305FADE
:1005500003FC4CEA040491F803C0BCF1280F05D158
:1005600000F1080C08FA0CF8C2F8148091F803C0E6
:10057000BCF1480F07D100F1080C4FF0010808FA50
:100580000CF8C2F81080401C0828CED35460BDE897
:10059000F08101617047000030B500210022002485
:1005A0000023344D6D6805F00C0121B1042905D0FC
:1005B000082923D105E0304D056022E02E4D05606D
:1005C0001FE02C4D6D6805F470122A4D6D6805F41E
:1005D0008034022505EB92421CB9284D5543056035
:1005E0000BE0244D6D6805F400351DB1234D5543D6
:1005F000056002E0204D5543056002E01E4D056098
:1006000000BF00BF1B4D6D6805F0F00109091C4DCE
:100610006B5C0568DD404560164D6D6805F4E06172
:10062000090A174D6B5C4568DD408560114D6D68AA
:1006300005F46051C90A124D6B5C4568DD40C56028
:100640000C4D6D6805F44041890B0E4D6B5CC5681F
:10065000B5FBF3F5056130BD29B1064A9269024345
:10066000044B9A6104E0034A92698243014B9A6108
:10067000704700000010024000127A0000093D009F
:1006800014000020240000202DE9F04786B0054624
:100690000E460024A24600BFA1460027B08900B143
:1006A00000BF2F462C8A4CF6FF700440F0880443AC
:1006B0002C82AC894EF6F3100440B088318908438F
:1006C000718908430443AC81AC8A4FF6FF40044073
:1006D000B0890443AC8201A8FFF75EFF4F48874210
:1006E00002D1DDF810A001E0DDF80CA0A88900F42B
:1006F000004040B10AEBCA0000EB0A103168490023
:10070000B0FBF1F807E00AEBCA0000EB0A10316811
:100710008900B0FBF1F86420B8FBF0F00401200977
:10072000642101FB1089A88900F4004040B1322007
:1007300000EBC900B0FBF1F000F00700044308E053
:10074000322000EB09106421B0FBF1F000F00F0043
:1007500004432C8106B0BDE8F08721B1828942F4C0
:100760000052828104E082894DF6FF731A40828133
:100770007047F0B50346002400260025002040F60F
:100780006A17B94200D100BF1846C1F3421401F004
:100790001F06012707FA06F5012C01D10C3004E0F1
:1007A000022C01D1103000E014301AB107682F4339
:1007B000076002E00768AF430760F0BD0146888824
:1007C000C0F30800704770B50246002400230025DE
:1007D000002040F66A16B14200D100BFC1F34215B5
:1007E00001F01F03012606FA03F3012D02D19689B9
:1007F000334006E0022D02D1168A334001E0968A8A
:1008000033400C12012606FA04F41688344013B162
:100810000CB1012000E0002070BD00000038014054
:1008200010B56FF00400FFF70CFE1C4800681C496F
:10083000B0FBF1F01B4908700846007800EB40015E
:10084000C1EBC0104FF6FF7101EAC00016490880E5
:1008500010BD0146144A12884A434FF0E0235A6102
:1008600000229A611A46126942F001021A6100BF21
:100870004FF0E022106900F001021AB100F480325A
:10088000002AF5D04FF0E022126922F001024FF069
:10089000E0231A6100229A617047000000000020E6
:1008A00000127A00280000202A00002000BF4A4AD7
:1008B000128802F04002002AF9D0C2B2464B1B1D3A
:1008C0001A80704710B586B00446012144F2040036
:1008D000FFF7C2FE4FF40070ADF8140003208DF84E
:1008E000160018208DF8170005A93C48FFF7C6FD33
:1008F0004FF48060ADF8140004208DF8170005A9AE
:100900003648FFF7BBFD25208DF8000003208DF849
:1009100001008DF8020001208DF803006846FFF702
:100920005EFD01940020ADF80800ADF80A00ADF8B6
:100930000C00ADF810000C20ADF80E0001A92648FF
:10094000FFF7A2FE012240F225512348FFF711FFD5
:1009500001212148FFF701FF06B010BD10B540F29C
:1009600025511D48FFF72FFF10B31B48FFF726FF47
:10097000C4B21B48008800F40040C8B91848008879
:1009800000F4804060B10A2C03D000201449088094
:1009900020E01348008840F400401149088019E025
:1009A0000D2C06D10E48008840F480400C49088088
:1009B00010E00B480088C0F30D000A490C540848A9
:1009C0000088401C0649088008460088C72801DDC9
:1009D0000020088010BD00000038014000080140E0
:1009E000300000203400002008B501212020FFF74E
:1009F00033FE01210420FFF72FFE10208DF80300A5
:100A000003208DF8020004210C48FFF7C2FD69465F
:100A10000A48FFF733FD04210848FFF7BAFD4FF4F9
:100A20008070ADF8000069460548FFF727FD4FF4D8
:100A300080710348FFF7ADFD08BD000000140140C0
:100A400000080140064C074D06E0E06840F0010355
:100A500094E8070098471034AC42F6D3FFF76CFBDC
:100A6000B80A0008D80A0008014A024900F013B881
:100A7000AD0800082C00002002E008C8121F08C1C1
:100A8000002AFAD170477047002001E001C1121F0F
:100A9000002AFBD170472DE9F04116460F46044667
:100AA000002503E03946B047641C6D1C20780028FF
:100AB000F8D12846BDE8F081D80A000800000020DF
:100AC00034000000780A00080C0B000834000020F5
:100AD000CC040000880A000800A24A0400000000BC
:100AE00000000000010203040607080900000000DE
:100AF00001020304010203040607080902040608B0
:0C0B0000000000000000000000000000E9
:0400000508000131BD
:00000001FF
